:100000000200F400000000000000000000000000FA
:100010000000000000000000000000024BEB0000A8
:100020000000000000000000000000027E4400000C
:1000300000000000000000000000000000000000C0
:1000400000000000000000000000000000000000B0
:10005000000000027DC5000000000002330C00001B
:10006000000000027DD90000000000024C090000E1
:100070000000000000000000000000022431000029
:10008000000000025D6100000080FB120103B90066
:10009000030200EEE479217818B800028004F70921
:1000A000D8FCE490F1FF78D879098002F0A3D8FC5D
:1000B000D9FA78129001067A0BBA00028007E4930D
:1000C000A3F608DAF990FAD6AA82AB8390011178E8
:1000D000CF79018015E493A3AC82AD838A828B83B0
:1000E000F0A3AA82AB838C828D83D8E9D9E712353D
:1000F0008612008675D00075817F7510FF7511F12D
:1001000002008B790122804020100804020100FFC8
:1001100003E2040000FF07000000100000000000E0
:1001200000561209850200000001000000FFFFFFD9
:10013000FF030000000F10000010600500780000B1
:10014000000900000000200000CEFAEFBE042000ED
:1001500000FF006005001000000000600000102794
:10016000000000E004000080000004000000BDFF6B
:100170009C56E803000000F0FFFF011000000A0099
:10018000000032000000010F00000008000000A67F
:100190000E000064000000E8FFFFFF0B00000042BB
:1001A000000000FF3F0000983A0000FF2726C28EA3
:1001B000E2FFFFFF80EE3600993A000006060606D1
:1001C0000606040000DFBE00072042973100007DD4
:1001D00000000000000100FFFF0000C6000000E07A
:1001E00066701008A3E066700A08A3E06670040851
:1001F000A3E06622C3E7960809E7960809E7960890
:1002000009E79622C3E09608A3E09608A3E09608C3
:10021000A3E09622080808EAC0E0EBC0E086F0E719
:10022000A4FA180986F0E7A42AFA180986F0E7A4C8
:100230002AFA180986F0E7A42AFA1986F0E7A4FB3F
:10024000E5F02AFA190886F0E7A42BFBE5F03AFA64
:10025000190886F0E7A42BFBE5F03AFA181809868E
:10026000F0E7A4C5F02BFBE43AFA1908E7C5F0C69D
:10027000A426F6E5F03BFBE43AFA1886F0E7A4F68C
:10028000E5F00826F6E43B08F6E43A08F6D0E0FB91
:10029000D0E0FA22E4CFC0E0E4CEC0E0E4CDC0E09C
:1002A000E4CCC0E075F020C3E633F608E633F60888
:1002B000E633F608E633F6181818EC33FCED33FD98
:1002C000EE33FEEF33FFC3EC9709ED9709EE970984
:1002D000EF97191919400FFFEC97FC09ED97FD09ED
:1002E000EE97FE191906D5F0BEECF709EDF709EE09
:1002F000F709EFF7191919D0E0FCD0E0FDD0E0FEC6
:10030000D0E0FF2212036C18181812029412035B3B
:100310001919192212035B191919080808E6181887
:100320001820E7E012029412036C18181822090929
:1003300009E719191920E7DC080808E61818182039
:10034000E70302029412036C1818181202941203A5
:100350006C18181812035B19191922E4C397F709CE
:10036000E497F709E497F709E497F722E4C396F6D0
:1003700008E496F608E496F608E496F62260160875
:100380000808C6C313C618C613C618C613C618C6AF
:1003900013C6D5E0EA22700908080822601618186A
:1003A00018C6C333C608C633C608C633C608C63324
:1003B000C6D5E0EA22E627F60809E637F60809E698
:1003C00037F60809E637F622E026F608A3E036F607
:1003D00008A3E036F608A3E036F622E026F008A3EC
:1003E000E036F008A3E036F008A3E036F022C3E6DA
:1003F00097F60809E697F60809E697F60809E697DA
:10040000F622C3E0C696F608A3E0C696F608A3E077
:10041000C696F608A3E0C696F622C3E096F008A3B7
:10042000E096F008A3E096F008A3E096F022E647F5
:10043000F60809E647F60809E647F60809E647F62A
:1004400022E0F608A3E0F608A3E0F608A3E0F6220F
:10045000E493F608740193F608740293F6087403A3
:1004600093F622E6F008A3E6F008A3E6F008A3E678
:10047000F022CAC0E0E6F0A308DAFAD0E0FA22CA15
:10048000C0E0E0A3C582CCC582C583CDC583F0A3FF
:10049000C582CCC582C583CDC583DAE6D0E0CA2249
:1004A000C3E498F8E499F91204E18026C3E49AFAC7
:1004B000E49BFBE920E7E91204E1E498F8E499F908
:1004C00022C3E498F8E499F91204E1E498F8E49975
:1004D000F9C3E49AFAE49BFB22EB20E7CFE920E79B
:1004E000E0B90010BB0008E88AF084F8AAF022E422
:1004F000FBC8FA22EB70227B10C833C8C933C9335A
:100500005007C39AC3DBF280069A50012ADBEAC87F
:1005100033F4C8C933F4C9FA2275F008E4C833C803
:10052000C933C933C99AC99B5004C92AC93BD5F0FC
:10053000ECFBC833F4C8E4C9FA22600D08C6A2E790
:1005400013C618C613C6D5E0F322600C08C6C31341
:10055000C618C613C6D5E0F422700422600D18C672
:10056000C333C608C633C6D5E0F41822251010AF31
:1005700008F510400215118008F51040021511D23F
:10058000AF22C0D0251010AF08F510500205118021
:1005900008F51050020511D2AFD0D0222510F582F7
:1005A00010AF08F510400215118008F51040021533
:1005B00011D2AF851183222510F582E43511F58320
:1005C00022E4732510C582C0E0E51134FFC583C065
:1005D000E0E510C3958224F9F8E4C5A88583118568
:1005E0008210C5A8E8CEF0A3E520F0A37808E608BD
:1005F000F0A3DEFAEFF0A3E58124FBF8E608F0A310
:10060000E608F0A30808E608F0A3E608F0A31581C1
:100610001581D0E0FED0E0F815811581E8C0E0EE4C
:10062000C0E022851183851082E0A3FEE0A3F520BF
:100630007808E0A3F608DFFAE0A3FFE0A3C0E0E05B
:10064000A3C0E0E0A3C0E0E0A3C0E0E4C5A88582C9
:1006500010858311C5A8D083D08222C0D02510C5B3
:1006600082C0E0E51134FFC583C0E0E510C3958288
:1006700024F310AF088583118582108008858311CB
:10068000858210D2AFC8F0A3E9F0A3EAF0A3EBF0A3
:10069000A37908E709F0A3D8FAECF0A3EDF0A3EEF4
:1006A000F0A3EFF0A3D0E0F0A3D0E0F0A3D0E0F00F
:1006B000A3E520F0A3E5F0F0A32285118385108245
:1006C000E0C0E0A3E0F9A3E0FAA3E0FBA37808E030
:1006D000F608A3DFFAE0FCA3E0FDA3E0FEA3E0FF41
:1006E000A3E0C0E0A3E0C0E0A3E0F5D0A3E0F520E4
:1006F000A3E0A3F5F0E4C5A8858311858210C5A801
:10070000D082D083D0E0F8D0E03274048006740246
:1007100080027401C0E0F40412059CD0E01204725F
:10072000227404800474028000CCC0E0EDC0E0E5D7
:1007300010C39CCCAD1150011D10AF068C108D1153
:1007400080068C108D11D2AF12047FD0E0FDD0E076
:10075000FC22D083D082C5F0E493A3C5F0C395F00A
:10076000F5F0E493A3C395F04005E5F0048001E4BF
:1007700075F002A42582F582E5F03583F583E493D4
:10078000A3C0E0E493C0E022D083D082CCC0E0E4F8
:1007900093A360061207B21470FAE493A3600612E2
:1007A00007D11470FAD0E0FCE493A3C0E0E493C056
:1007B000E022C0E0E493A3D39C5010E493A3C39C35
:1007C000400AD0E0D0E0D0E00207A5A3A3A3D0E088
:1007D00022C0E0E493A36C7009D0E0D0E0D0E00246
:1007E00007A5A3A3D0E0223330030034330403432E
:1007F00040333044433433CEFAEFBE00000021636F
:10080000F02166E4216BD021717A2174AD2133335C
:10081000213723213B13213F032142F422B6272213
:10082000BB1322C00022C4EC22C9D822CEC422D3DA
:10083000B122D89D22DD8922E27622E76222EC4EA7
:1008400022F13B22F62722FB132300002304EC2392
:1008500009D8230EC42313B123189D231D892322F5
:1008600076232762232C4E23313B233627233B1349
:100870002340002344EC2349D8234EC42353B123FF
:10088000589D235D89236276236762236C4E237112
:100890003B237627237B132380002384EC2389D8F2
:1008A000238EC42393B123989D239D8923A276236D
:1008B000A76223AC4E213C0F213E0721400021417D
:1008C000F82143F0216A56216C4E235E07235F0412
:1008D0002360002360FC2361F874F81205C37408D8
:1008E0001205B7E0F8A3E08015A3AA82AB838C823F
:1008F0008D83A3AC82AD83E824FF18E934FFF9E8C7
:100900007001E960248A828B83E0FE8C828D83E013
:100910006E8A828B8360D2E0F88C828D83E0FAE865
:10092000C39AFAE49400FB80047A007B007F010202
:10093000062374F71205C374091205B7E0FEA3E09D
:10094000FFEAF8EBF980188C828D83E08882898336
:10095000F0A3A882A9838C828D83A3AC82AD838E01
:10096000088F0974FF25081E74FF3509FFE508701C
:1009700002E50970D27F0202062374F71205C374E0
:10098000091205B7E0F8A3E0F9EAFEEBFF8A088B4D
:1009900009C3EA9CEB9D405EEC28F582ED39F583B6
:1009A000C3E5829508E5839509404BEA28FAEB39BF
:1009B000FBAC82AD83120A087002E5096041EC24A9
:1009C000FF1CED34FFFDEA24FF1AEB34FFFB8C82A1
:1009D0008D83E08A828B83F080DB8C828D83E08A3A
:1009E000828B83F08C828D83A3AC82AD838A828BD1
:1009F00083A3AA82AB83120A087002E50970DBEEBA
:100A0000FAEFFB7F020206238808890974FF250894
:100A10001874FF3509F9E5082274F81205C3740843
:100A20001205B7E0F8A3E0F98A828B838003ECF02B
:100A3000A3E8FEE9FF74FF2E1874FF3FF9EE700182
:100A4000EF70EB7F0102062374F81205C3EAF8EB9E
:100A5000F98C828D83E0A3AC82AD838A828B83F094
:100A6000A3AA82AB8370EAE8FAE9FB7F01020623BE
:100A7000C082C0838A828B838001A3E070FCE58200
:100A8000C39AFAE5839BFBD083D08222C082C083C5
:100A900012131D90F1FFEAF0A3EBF0121357E9F8DF
:100AA0003395E0F990F201E8F0A3E9F090F1FFC38B
:100AB000E094BCA3E09402400D90F1FFC3E09409E0
:100AC000A3E09407401190F1FF74E2F0A37404F0E6
:100AD00090F201E4F0A3F0D083D0822274F71205E3
:100AE000C375B473E5B4A2E750FAAABA8A828582C4
:100AF00008E5BBF5097404780812054AAA08AB0991
:100B00007F02020623C008C009E9C394085010758B
:100B10000801750900E97808120559E508F5F2E5BC
:100B2000B4A2E640FA743049F5B5D009D0082212D3
:100B30000B05120ADC75F200228A088B09750A007F
:100B4000750B0090FAD6780C1204417808790C12D3
:100B5000021490FADA780C1204417808790C120227
:100B600094AA08AB097F0802062374F11205C37921
:100B70000F120B2FEA75F003A4FAACF075F003EB3B
:100B8000A42CFB80B474F51205C3E9FE740B1205A6
:100B9000B7E0F8A3E0F988828983124DC8EEFC7DA6
:100BA00000AA82AB83124DF2124E7D02124D74F3F5
:100BB0001205C374FC12056C750C04750D00780CDD
:100BC00012070E74021205B785820C85830D780C0E
:100BD00012070E120DD4120582851082851183C072
:100BE00082C08390FAE67808120441D083D08278DC
:100BF000081201DF7003D38001C374041205827FE1
:100C00000602062374F51205C374F912056C740309
:100C10001205B7EAF0A3EBF0A3ECF0A3EDF0740239
:100C20001205B7E9F07E047F0074011205B7740362
:100C3000F0E4851082851183F0851082851183E0B0
:100C4000FA74021205B7E06A6073806674011205D7
:100C5000B7E0C394035003020CE3C3EF94104003C6
:100C6000020CE31210EF12070E74021205B7858210
:100C700008858309780812070E74071205B78E08D5
:100C80008F09750A00750B0078081203C8120DCC85
:100C9000120582851082851183E0FA74021205B76D
:100CA000E06A609574011205B7E0F8EE28FEEF34B3
:100CB00000FF851082851183E064FF708F851082AC
:100CC000851183E0FA74021205B7E06A70157401A9
:100CD0001205B7E0C0E074121205B7120CF8D0E0AC
:100CE000F0800C74121205B7120CF8E4F0FEFFEE5F
:100CF000FAEFFB740702124AE0F8A3E0F58388825A
:100D00002274F11205C374FF12056C89088A0E8BD8
:100D10000F74101205B7E0F50CA3E0F50D8C82AE50
:100D2000828E0A750B00780A12070E7C007D001275
:100D30000A19740212058290F203E070057900022C
:100D40000DC285108285118385820A85830B780AFE
:100D500012070EA90890F20478081204411210E15B
:100D6000120582850C82850D83EAF0A3EB12151221
:100D700060CBF874FE28181874FF3400F9C3EE989D
:100D8000E49940B9850C82850D83E02402F0A3E04C
:100D9000340012151224FEF50875090078081207B0
:100DA0000E780E12070E850C82850D8312151F1208
:100DB00003C8120DCC120582851082851183E024B0
:100DC000FEF974011205827F08020623AA08AB0906
:100DD000AC0AAD0B124E9174042274F71205C37461
:100DE000FE12056C85108285118385820885830932
:100DF000780812070E120D01740212058274021295
:100E000005827F0202062374F51205C374EF1205F2
:100E10006C74031205B7E9F0740B1205B7EAF0A37E
:100E2000EBF0ECFE90F203E070030210DC8E08742D
:100E3000022508F8E43400F9E89441E994004003FD
:100E40000210DC90F208121306E4C39AFA74109BA5
:100E5000FBC3EA98EB99400302103090F204C08281
:100E600090FAE278081204417583F2D08278081271
:100E700001DF700590FADE800390FAE27808120430
:100E80004174071205B7780812046390FADE12075E
:100E900021740B1205B778081204411211291205AA
:100EA0008274051205B77404F0A3E4F090F208749C
:100EB00004F0A3E4121517F01210EF12070E7402DB
:100EC0001205B7858208858309780812070E90F20B
:100ED00004C08212110DD08278081203C8120DCC02
:100EE000120582851082851183E064FF7003020F72
:100EF00084E0607174011205B7E0F50875090078A7
:100F00000812070E75080A7509F2780812070E9084
:100F1000F204C08212110DD08278081203C8120D9B
:100F2000CC12058275080A7509F2780812070E744A
:100F3000031205B7E0F974091205B7C082C08374C3
:100F4000071205B712111BD083D08278081203C88C
:100F500012127612058274011205B7E0F8740512B8
:100F600005B712110474011205B71210FB85108227
:100F7000851183E064FF600CC390F209E094105087
:100F800003020EB890FAE67808120441740D1205B7
:100F9000B77808120463740D1205B785820885833B
:100FA00009780812070E790474091205B778081237
:100FB000044112127612058290FADE12072190F295
:100FC00004780812044112112912058274071205CF
:100FD000B7780812044190F204780812046374028E
:100FE0001205B7858208858309780812070E79FFF4
:100FF00090F20478081204411210E112058290F276
:1010000008EAF0A3EBF0802874021205B7E4F0853B
:10101000820A85830B780A12070E790190F2047513
:101020000A00750B0078081203C8121276120582A6
:1010300074031205B7E0C0E074021205B7D0E0F007
:1010400074041205B7858208858309780812070E93
:1010500074051205B7E0F990F20478081204411201
:1010600010E11205828A088B09EA7001EB7099740D
:10107000031205B7E0851082851183F074022EC03B
:10108000E074011205B7D0E0121517858208858338
:1010900009780812070E790290F204C08212110D2D
:1010A000D08278081203C8121276120582740B12CD
:1010B00005B7120725EEF990F204C08212110DD087
:1010C0008278081203C890FAEA78081203C812124C
:1010D0007612058274011205B71210FB7411021208
:1010E0004AAA08AB09AC0AAD0B120C047402221216
:1010F0001252750802750900780822E0F890F2088B
:1011000012110422E028F0A3E03400F02290F2084B
:101110001211142212111B7583F222E0F508A3E0CC
:10112000F509750A00750B0022AA08AB09AC0AADD7
:101130000B124D0A74042274F51205C374FB1205D8
:101140006CA2F092007E007F00E490F203F0EEF8D3
:10115000EFF97401280EE439FFC3E8940AE994001A
:10116000A2D265D033507812125290FAE278081267
:10117000044190F204780812046390FAE2780812AD
:101180000441121263602B851082851183858208C9
:10119000858309780812070E79FF90F20478081207
:1011A00004411210E112058290F208EAF0A3EBF07C
:1011B000802490FADE780812044190F20478081234
:1011C000046390FADE780812044112126370B87A50
:1011D000647B0012338190F203E0706C02114E9038
:1011E000FAE2780812044190F2047808120463903D
:1011F000F2087404F0A3E4F0A200504C90FADE125E
:10120000072190FAE278081204411211291205828E
:1012100090FAE6780812044174011205B7780812B2
:10122000046374011205B785820885830978081262
:10123000070E790490F20478081204411212761213
:101240000582740190F203F074051205827F040296
:101250000623740F55C944A0F5C9740F55C94450ED
:10126000F5C922AA08AB09AC0AAD0B120BAEE49289
:10127000E090F203F022AA08AB09AC0AAD0B120B06
:1012800085740222C082C08374FE12056C12154858
:101290007909021381C082C08374FE12056C7C023E
:1012A000851082851183AA82AB837909120DDAE950
:1012B000600512130680047AF37B02740202138421
:1012C000C082C08374FE12056C1215487912021395
:1012D00081C082C08374FE12056C7C0285108285F9
:1012E0001183AA82AB837912120DDAE9600CE070E7
:1012F00002A3E0600512130080047AA67B0980BB7C
:10130000851082851183E0FAA3E0FB22C082C083AE
:1013100074FE12056C1215487902021381C082C056
:101320008374FE12056C7C02851082851183AA826B
:10133000AB8379020215B7C082C08374FF12056CBB
:1013400012134879030215F0E9851082851183F0A4
:101350007C01AA82AB8322C082C08374FF12056C19
:101360007C01851082851183AA82AB8379030215E3
:10137000D57C067901120E07227C067901120DDA5E
:1013800022121542120582D083D08222E9FC79050F
:10139000120E07227C147905120DDA227AFF7BFFE8
:1013A000227C1B7906120E07227C1B7906120DDAAD
:1013B000227C03790A120E07227C03790A120DDAC5
:1013C000227C03790B120E07227C03790B120DDAB3
:1013D0002274F71205C374FC12056C8A088B097815
:1013E0000812070E7C0474021205B7AA82AB83129E
:1013F0000D017402120582E9C39404E49400500FB5
:10140000850882850983E4F0A3F0121300803885F3
:101410001082E0F508A3E0F5097404780812055974
:10142000AA08AB0974021205B7E0F4F8A3E0F4F9D6
:10143000800FEA24010AEB3400FBE9C313F9E81337
:10144000F8E87001E970EB7404020DFF74F5120501
:10145000C374FA12056CE9FE851082851183AA8295
:10146000AB831213D18A088B09740125080AE4356D
:1014700009FB8A088B097404780812054A74021261
:1014800005B7E508F0A3E509F0740F5AF87001E418
:10149000601A750801750900E81478081205597476
:1014A000041205B7E508F0A3E509800874041205E5
:1014B000B7E4F0A3F074041205B7E0F4F8A3E0F485
:1014C000F974041205B7E8F0A3E91215127002A32B
:1014D000E06005EA540F70127C0474021205B7AA8A
:1014E00082AB83EEF9120E07802374021205B785D2
:1014F0008208858309780812070E790474021205A0
:10150000B712151F1203C812127612058274060252
:10151000124A121517E022F08510828511832212DB
:101520001114758204780822790C12144C22C0829E
:10153000C08374FE12056C12155E121548791102F3
:101540001381120E07740222851082851183EAF03E
:10155000A3EBF07C02851082851183021352C082B6
:10156000C08374FE12056C851082851183AA82AB3C
:1015700083790C0216DAC082C08374FE12056C7C7B
:1015800002851082851183AA82AB8379118028C0DD
:1015900082C08374FE12056C121548790F02138104
:1015A000C082C08374FE12056C7C02851082851196
:1015B00083AA82AB83790F1215BD021384120DDA50
:1015C000E0FAA3E0FB740222C082C08374FF12051C
:1015D0006CE41215FC1215DB021384120DDAE0F92B
:1015E000740122C082C08374FF12056CE91215FCDD
:1015F0001215F6021384120E077401221213497990
:1016000013227C067914120E07227C067914120D1F
:10161000DA227C057923120E07227C057923120D2C
:10162000DA22C082C08374FF12056CE91216408072
:10163000BFC082C08374FF12056CE412164080950F
:10164000121349791522C082C08374FE12056C857D
:101650001082851183AA82AB837916807D79161258
:10166000144C22C082C08374FE12056C12164612FE
:1016700015487917021381C082C08374FE12056C6D
:101680007C02851082851183AA82AB8379170215AB
:10169000B7C082C08374FE12056C1216C5121548BD
:1016A0007919021381C082C08374FE12056C7C021A
:1016B000851082851183AA82AB8379190215B779C7
:1016C0001812144C22C082C08374FE12056C85105F
:1016D00082851183AA82AB8379181216E0021384E3
:1016E0001213D1740222792012144C22C082C083BA
:1016F00074FE12056C851082851183AA82AB8379F2
:101700002080D7C082C08374FE12056C1216EC12C2
:1017100015487921021381C082C08374FE12056CC2
:101720007C02851082851183AA82AB837921021500
:10173000B77C047910120E07227C047910120DDA9E
:101740002274F11205C374F912056C74011205B705
:10175000EAF0A3EBF0E9851082851183F090F2D6D0
:101760007808120441851082851183E0FC7403120D
:1017700005B7ECF0A3E4F0A3F0A3F074031205B7EF
:10178000780C1204417583F27582D2780C1203C86A
:10179000780C79081201F4406174031205B77808D7
:1017A00012044190F2D278081203DB851082851171
:1017B00083E0F974011205B7121886121997120501
:1017C000C1851082851183E0FA74FF2AF0EA603A3D
:1017D00074011205B7121997E0FA90F2DAE02AF0D4
:1017E00074011205B7E02401F8A3E03400F9740194
:1017F0001205B7E8F0A3E9F080C790FAEE78081276
:1018000003C890F2D2780812046374071205827F2D
:101810000802062374F11205C38A0C8B0D8C0E8D01
:101820000F740F1205B7780812044174131205B72C
:10183000E0FCA3E0FD74151205B7121886ECF0A3C6
:10184000EDF090F2DDEAF0A3EBF0E990F2DAF0903F
:10185000F2CE780C12046390FAE2780C12044190F4
:10186000F2CA780C12046390FAE2780C12044190E8
:10187000F2D2780C12046390F2D67808120463E472
:1018800090F24AF08089E0FAA3E0FB90F2DB227448
:10189000F11205C374FC12056C851082851183EA70
:1018A000F0A3EBF0A3ECF0A3EDF090F2CE780812E9
:1018B0000441851082851183780C1204417583F2EE
:1018C0007582CA780C1203C8780C79081201F4509A
:1018D00003021976851082851183780812044190DD
:1018E000F2CA78081203DB802C90F24AE0C3947F9E
:1018F000400512198DE4F0E0F50874012508F09018
:10190000F2DD1219971205C1E508244BF582E43483
:10191000F2F583E9F085108285118378081204417D
:1019200085080C85090D850A0E850B0F90FAF27853
:101930000C1203C8851082851183780C1204639001
:10194000FAE278081201DF70A090F2CE7808120453
:10195000417583F27582CA78081201DF701490F223
:101960004A12198D90F2DAE060047903801A790145
:1019700080167900801290FAEE78081203C890F26F
:10198000CA78081204637902740402180CE0F97A28
:101990004B7BF212174122E0F8A3E0F58388822204
:1019A000C082C0837833760078258682088683A338
:1019B0007834A68208A6837836760078327600D00E
:1019C00083D0822274F51205C3782E760008760043
:1019D000802878287601782586820886831818184A
:1019E0007925E6F70809E6F718A68208A6831219F2
:1019F000A078297600121B5BE4F07832E6241AF80E
:101A0000E65404C0E07833E6C31354F9FAD0E04A50
:101A1000F67836E62412F879348782098783E0560F
:101A200060067833E6D2E1F6783606E6C3940840DD
:101A30000A7600A37834A68208A6837833E6248346
:101A4000F582E434F3F583E0C313F508E0A2E0E4A3
:101A500092E0FF7821860A750B00E508780A1205E6
:101A60003AAA0A7822E6C39A404AEA7821C6C3967F
:101A7000F6EA7822C6C396F67821E6A2E7402EC39E
:101A800033F67830E67003121B6C7831E6A2E7502B
:101A900004D2F08002C2F0A2F0E492E0FA783016AC
:101AA0007831E6C333F67822E6C3334AF674016F21
:101AB000783280437821EAF67E008019C2F0A2F0E5
:101AC000E492E0FA7830167831E6C333F67822E60D
:101AD000C3334AF60EEEC3950850197821E6C33396
:101AE000F67830E67003121B6C7831E6A2E750CC32
:101AF000D2F080CA7832EFF6E6241AF8E6C0E07831
:101B000029E62412F8D0E056FC121B5BE04CF0787A
:101B10002906E6C3940850030219FA7828067827A4
:101B2000E67828C39640030219F17827E6F978236E
:101B3000E62401FA08E63400FB122C39782EE6245C
:101B400001F608E63400F618792AC3E6970809E694
:101B50009750030219D27F040206237828E6FA7808
:101B600023E62AF58208E63400F58322122C97E951
:101B70007831F6783076082274F51205C3122C9766
:101B8000E9781CF67508008005122C970508E50811
:101B9000781CC39640F37508008028122C97E9FA48
:101BA000EEC333FEE433FFEE2483F8EF34F3F9742D
:101BB0000F5A88828983A3F0EAC4540F88828983EC
:101BC000F00508850882AE82750A01750B00781C45
:101BD000E614780A120559C3EE950AE4950BA2D2D1
:101BE00065D03340B6122C97E97822F6782176FF3B
:101BF0007508A4750900780812070E7C007D007A2C
:101C0000DF7BF2120A1974021205827C00EC75F077
:101C100052A424DFFAE5F034F2FBECC3332423F8BA
:101C2000EAF608EBF60CECC3940240E17828760162
:101C300078297600782E76000876007830760012C3
:101C400019A01219C4021B56C008C009782AECF664
:101C500008EDF6782CEAF608EBF68A08F509740325
:101C6000780812054AE5087827F6121B78D009D0C3
:101C7000082274F71205C312224353F3BFD28643DE
:101C8000FD4053F4FE53FEFEC28753F37F43FD80B5
:101C9000C28053F3FE43FD0153F3FBD28243FD04A4
:101CA00053F4EF53FEEF124C5E124C71C295C29387
:101CB00043FE2043FE0853F4FD53FEFD43F6045358
:101CC000F4FB53FEFB750858750900780812070EDF
:101CD0007C007D007A837BF4120A1974021205825B
:101CE00074FF90F484F090F485F07A087B0012334E
:101CF00081A2924011740190F48BF090F48CF0C2A8
:101D0000F0122254800AD29243FE04D29143FE0282
:101D10007A0A7B0012338190F48BE0700B7401908F
:101D2000F48CF0D2F01223B07F0202062374F71273
:101D300005C390F490E0FCA3E0FDEC7001ED603988
:101D4000EAF8EBF97A647B001204E188088909AAB1
:101D500008AB09EA9CEB9D90F4905014C3E09AF014
:101D6000A3E09BF090F490E07002A3E0700B80047D
:101D7000E4F0A3F07902121DAA80ADC082C0839066
:101D8000F48BE06017EA75F00AA4FAACF075F00A7B
:101D9000EBA42CFB90F490EAF0A3EBF0021E22C01F
:101DA00082C08390F492E0F98078C082C08390F47E
:101DB0008FE049F0806C74F51205C390FAE2780860
:101DC0001204417583F47582C978081201DF602D11
:101DD00090F4BD7808120441AA08AB09AC0AAD0B17
:101DE00012205B90F4C97808120441AA08AB09AC30
:101DF0000AAD0B12205B90F492E0F9800279FF7F2C
:101E000004020623C082C08390F48FE0A2E2500354
:101E1000121DB6E05403600312223AE4F08003E09E
:101E2000A2E0D083D08222C082C08390F48CE0F400
:101E300080EE74F31205C374FE12056C8510828562
:101E40001183EAF0A3EBF08C0C8D0DD2F0124F3A17
:101E50008A088B09AE08AF097A007B00120B6A8AE8
:101E6000088B09851082851183E07002A3E060135E
:101E7000851082851183E0F8A3E0F5838882EAF07B
:101E8000A3EBF0E50C7002E50D7003021F13740163
:101E9000850C82850D83F0C3EE94D4EF94FEA2D21C
:101EA00065D03350047408806912139C8A0A8B0B26
:101EB000A80AA90B74FF68700374FF69700478980E
:101EC0007908C3E50898E50999500474028043E055
:101ED0006401703F122759EEF8EFF97A0A7B00127D
:101EE00004D9E8F91226B390F487EAF0A3EBF0A343
:101EF000ECF0A3EDF090FAE278081204417583F457
:101F000075828778081201DF70097403850C828559
:101F10000D83F0EEFAEFFB74021205827F060206D3
:101F200023C082C08374FA12056C851082851183E8
:101F3000AA82AB8312160AE07002A3E07024851017
:101F4000828511837458F0A37402F01205B774C02F
:101F5000F0A37401F0851082851183AA82AB8312ED
:101F6000160274021205B7E0FCA3E0FD851082851D
:101F70001183E0FAA3E0FB122B9E74061205820285
:101F80001E227A927BF412161A2222C082C083E9A2
:101F9000FBEAF9740490F484F0EB90F485F0121FDE
:101FA000CD7901021E22C082C083E9FAEBF9EA90E2
:101FB000F484F0121FCD021E22C082C08390F483ED
:101FC000021E1FC082C08390F48E021E1FC082C0FA
:101FD00083E990F486F012200C021E22C082C08396
:101FE00090F484E01207880002FFFB1F04F11FFE3B
:101FF0001F90F485E0F9122D658004C38001D3029F
:102000001E22C082C08390F4CE021DA674F5120574
:10201000C3740190F483F012152890F4BD7808126F
:102020000441AA08AB09AC0AAD0B12205B90F487FF
:102030007808120441AA08AB09AC0AAD0B12205B68
:1020400090F4C57808120441AA08AB09AC0AAD0B9C
:1020500012205BE490F483F0021DFF74F11205C3BB
:1020600074FD12056C8A088B098C0A8D0B90F4BAEA
:10207000E0F8740428F50C74203400F50D750E009A
:10208000750F007808790C1203B5802EA2F950FC68
:10209000C2F9E5F9F989F912231574011205B7E0BF
:1020A00024FFF0A3E034FFF074011205B7E07002E2
:1020B000A3E070D81222F9124F31122243750C039B
:1020C000750D00780C12070E74021205B785820C8C
:1020D00085830D780C12070EAA08AB09AC0AAD0B6C
:1020E000124E91740412058290FAF678081203C811
:1020F000851082851183E070030221BB1207520113
:1021000008BA20152147218621C5215F2157218C3E
:10211000211B222F22AA08AB09AC0AAD0B124EE1FB
:102120001222E6A2F950FCC2F9E5F9F989F9122365
:102130000F74011205B7E0F50CA3E0F50D780879EE
:102140000C1203B502209A74011205B7E0FAA3E05D
:10215000FB127BC50220BAC2F01223B00220BA9053
:10216000F486E0A2E1401F7E181223FC7AF47B0182
:1021700080047A107B27127BC5EE1E600690F48ED9
:10218000E060EF1224061223800220BA7E0312249C
:10219000A390F484E0F9740469700A90F485E0F97E
:1021A0001224EB800312263212241A1EEE60025013
:1021B000DD50030220BAD2F01223B074031205825C
:1021C0007F08020623AA08AB09AC0AAD0B124EE148
:1021D0001222E6A2F950FCC2F9E5F9F989F91223B5
:1021E0000F8005790012231574011205B7E0F8A3DA
:1021F000E0F974FF28FA74FF39FB74011205B7EA9D
:10220000F0A3EBF0E87001E970D91222F9124F3116
:1022100090FAEE78081203C80220BA798112231BC3
:10222000E990F492F07A927BF41216120220BA74BA
:10223000011205B712223A0220BAE0A2E092F0128F
:10224000225422740F55C944A0F5C9740F55C944CE
:1022500050F5C92274F81205C3A2F0920090F490D0
:10226000E4F0A3F090F48BE0607790F48CE0A2E0CF
:10227000200001B3406BA200504190F4CDE075F016
:1022800064A4FAABF07001EB70047A887B13127BC4
:10229000C553FEFE53FEFB53FEFDC2867A147B003F
:1022A000123381D291D29243FE0243FE04D280D2F5
:1022B00087124C5ED2F01223B08016D286C292C230
:1022C00091C287C280C29043FE01C295C293124C54
:1022D00071A200E492E090F48CF07A0A7B00123351
:1022E000817F01020623C2807A057B0012335DC222
:1022F000917A0A7B0012335D227A0A7B0012335DE9
:10230000D2917A057B0012335DD2807A0580E4C2D7
:1023100087124C8522D287124C852274F51205C390
:10232000E9FE7508007F081222E6EEF912230F126B
:1023300022F9124C7153FEDF43FE08D287D293126A
:1023400022E680077A067B0012335DC293EF1F609E
:102350001F7A067B0012335DD293A29550E6750A70
:1023600001750B00EF780A120559E50A420880DB77
:102370001222F9124C5E43FE20A9087F04020623B4
:1023800074F81205C37EE07F2E800A7A0A7B001261
:1023900033811223EBA2904012EEF8EFF974FF287C
:1023A0001E74FF39FFE87001E970E0A2900222E19B
:1023B000C020A2F092001223EB124C5E1222F9C24E
:1023C000927AC87B0012335DD2921223EB7A0A7B99
:1023D00000123381A20050101222E6790712230F57
:1023E00079A51223151222F9D02022740F55C94461
:1023F000A0F5C9740F55C94450F5C922439A107508
:102400008A00438D0122C082C083538DFE539AEF10
:10241000E490F48EF0D083D08222EEC0E01222E667
:10242000797112231BE9FE1222F9EEA2E3D0E0FE3D
:1024300022C0E074F212065BE58AA2E0500E53BEA1
:10244000FCE5BE122406740190F48EF0758A00C279
:10245000EB7F010206BA74F81205C3E9FEEAFF78C1
:10246000377604802EEFC413135403C0E074C05EAB
:10247000C4FAD0E04A7838F624E7F582E43407F568
:1024800083E493F9122315EE333354FCFEEF333318
:1024900054FCFF7837E6FA74FF2AF6EA70C77F012A
:1024A00002062374F51205C3122C248A088B09AE88
:1024B00008AF09122C1B8A088B091222E6798212B6
:1024C000230F90F492E0F9122315796112230FA9DA
:1024D00009122315A908122315EFF9122315EEF995
:1024E0001223151222F97F0402062374F11205C388
:1024F00074FC12056C890C122C128A088B09AE0828
:10250000AF09A90C1232C792001226A574017808EF
:1025100012039690FAFA78081203C8740C7808121D
:10252000037DF50DF50EF50F7808790C1202147481
:102530000C780812039690FAFE78081203C88510EA
:10254000828511837808120463750878750900780C
:102550000812070E7CFF7D007A537BF5120A19746E
:102560000212058212268B02261C12269475087808
:10257000750900780812070E7508DB7509F47808EC
:1025800012070E74041205B77808120441AA08ABAA
:1025900009AC0AAD0B124E917404120582A20050D0
:1025A00033750878750900780812070E7508537599
:1025B00009F5780812070E74041205B71226A578DB
:1025C000081203C8AA08AB09AC0AAD0B124E9174ED
:1025D0000412058275080085080AE50A24DBF8E480
:1025E00034F4F9E82478F582E93400F583E0FA88D8
:1025F000828983E0F91224560508E508C3947840DF
:10260000D6EE2488FEEF34FFFF90FB027808120418
:102610004185108285118378081203DBEE7001EF8B
:10262000600302256A1222F974041205827F0802EF
:10263000062374F11205C3E9FE1226A57402780878
:10264000120396EE12078800020151260B552659F7
:10265000267E3380067E4480027E0012268B800810
:10266000EEF912231512269485080C85090D850AAA
:102670000E850B0F90FAF278081203C890FAE278F0
:102680000C1201DF70DA1222F980A21222E6791010
:1026900012230F22740F55C944A0F5C9740F55C9F0
:1026A0004450F5C922122C128A088B09750A00754C
:1026B0000B002274F31205C374F712056CE9FE9047
:1026C000F4BAE0F8740428F50874203400F50975AC
:1026D0000A00750B0090F4C178081203C890F48DBD
:1026E000E0701A7A007B007C007D0074091205827C
:1026F0007F0602062390FB0678081203C8750C09B2
:10270000750D00780C12070E74021205B785820C45
:1027100085830D780C12070EAA08AB09AC0AAD0B25
:10272000124E917404120582851082851183E0C3D4
:10273000949DA2D265D03340AAE0FAEEC39AA2D209
:1027400065D03340B074011205B77808120441AA6D
:1027500008AB09AC0AAD0B809274F51205C374FC8A
:1027600012056CE490F48DF0750804F509780812F0
:10277000070E74021205B78582088583097808124E
:10278000070E90FB0A7808120441AA08AB09AC0AAC
:10279000AD0B124E9174041205825059851082853A
:1027A0001183C082C08390FB0E7808120441D0834D
:1027B000D08278081201DF703C75084475090078F2
:1027C0000812070E7508977509F4780812070E901D
:1027D000FB127808120441AA08AB09AC0AAD0B122F
:1027E0004E9174041205827A977BF41227FFE492CB
:1027F000E090F48DF074041205827F04020623C079
:1028000082C0838A828B83A3E06403700C8A828BEC
:1028100083E064037003D38001C3D083D08222C0DD
:1028200082C08390F48DE060067A977BF480047A0E
:10283000007B0080E5C082C08390F5CFE0F8A3E084
:10284000F988828983A3AA82AB8390F5CFEAF0A3AB
:10285000EBF088828983E0F9D083D0822274F11270
:1028600005C3EAFEEBFF890890F5CB780C12044112
:10287000AA0CAB0DAC0EAD0F124DC8AC087D00EE2E
:10288000FAEFFB124DF29200124E7D750900750AA7
:1028900000750B0090F5CB78081203DBA2007F08CF
:1028A00002062374F11205C374FB12056C74011245
:1028B00005B7EAF0A3EBF074011205B7E02423F5A5
:1028C0000CA3E03400F50D850C82F583E02404852B
:1028D0001082851183F074011205B7E024211229BA
:1028E000DBF8A3E0F974031205B7E8F0A3E9F0857B
:1028F0001082851183E0FE74031205B7E02EF508FF
:10290000A3E03400F509750A00750B00780812077A
:102910000A90FB0A7808120441AA08AB09AC0AAD78
:102920000B124D0A740412058290FB0A78081204F7
:1029300041AA08AB09AC0AAD0B124DC87C047D005E
:102940007AF77B07124DF2850C82850D83E0FC7DC2
:102950000074011205B7E0FAA3E0FB124DF2124E2B
:102960007DEE90F5CBF0A37420F0A3E4F0A3F07516
:102970000835750928780812070E75085D7509284D
:10298000780812070E750C00750D00750E01750F95
:102990000074041205B7E0F508750900750A0075A2
:1029A0000B00780C79081203EE780C12070A7409F0
:1029B0001205B7E024241229DBF9740B1205B7E0E5
:1029C000F508A3E0AA08FB7C007D00121814740827
:1029D000120582740512058202289EF8A3E03400D5
:1029E000F988828983E02274F81205C390F5CFEA52
:1029F000F0A3EBF0E9FA7B007C007D0012188FE970
:102A00001207520001112A0E2A0B2A122759D380CD
:102A100001C37F0102062374F21205C374FF12057D
:102A20006C890D8A0E8B0C8C0B740F1205B7E0F5B8
:102A300008A3E0F50974111205B7E0FEA3E0FF74E6
:102A400001851082851183F0F50AEC90F5D5F074BC
:102A50000D650D7013121FDC404974068E828F8342
:102A6000F07A007B00022B1D7408650D701274044F
:102A700090F5D2F0EA90F5D3F0EB90F5D4F0803DEC
:102A8000740A650D701D740490F5D2F0A90EEB2444
:102A900000FAE439FB122DD3E990F5D3F064FF700E
:102AA0001480B7E50D90F5D2F0E50E90F5D3F0E582
:102AB0000C90F5D4F090F5D2E06404702D85088276
:102AC000850983E4F0A3F090F5D3E0F9122D655069
:102AD00089122E4BE9FAE0F9EA696005122E60804E
:102AE00009E50BA2E24003750A0785108285118370
:102AF000AC82AD83AA08AB09121E32E064017006F5
:102B00007401650A7003E0F50A7401650A700790A4
:102B1000F5D1E0D2E0F08E828F83E50AF0740112E5
:102B200005827F0702062374F81205C390F5D1E0F1
:102B30006066A2E0505AE9600790F5D5E0D2E1F076
:102B400090F5D5E0FE90F5D3E0FF90F5D2E0F508E2
:102B5000740465086033740D6508601B79FF122EDC
:102B600060E5081207880100017E2B0304892B0B06
:102B70007E2B0D772B902BEEF9121FCD8012EEFBE2
:102B8000EFFAA908121FA68007EEFAEFF9121F8BC1
:102B9000E490F5D1F0D38001C37F0102062374F5E0
:102BA0001205C38A088B0990F5D6EAF0A3EBF090E2
:102BB000F5D8ECF0A3EDF0EA54077025740378081B
:102BC00012054AE50890F5DCF0EC8508F0A4FCAAB3
:102BD000F08508F0EDA42AFD90F5DAECF0A3ED8085
:102BE0002B8C0A8D0B7403780A12054AE50A90F5BE
:102BF000DCF0EA850AF0A4F508AAF0850AF0EBA457
:102C00002AF50990F5DAE508F0A3E509F07F04025A
:102C10000623C082C08390F5DA8010C082C0839002
:102C2000F5D68007C082C08390F5D8E0FAA3E0FB18
:102C3000D083D08222121FB92274F11205C3EAFE9A
:102C4000EBFF8908124F3112315090F5F4780C12D5
:102C50000441AA0CAB0DAC0EAD0F124DC8AC08125E
:102C60002C8A750900750A00750B0090F5F4780838
:102C70001203DB90F5F87808120441AA08AB09ACFE
:102C80000AAD0B124EE1D30230F07D00EEFAEFFBFD
:102C9000124DF2124E7D2274F51205C3A2F950FCBA
:102CA000C2F9E5F9F989F990FAEE78081204419031
:102CB000F5F878081203DB7F0402062374F112058D
:102CC000C3890C75080A750900780812070E8A086E
:102CD0008B09780812070E122EC412039690FAFA86
:102CE00078081203C8740C780812037DF50DF50EF0
:102CF000F50F7808790C120214740C7808120396F8
:102D000090FB1778081203C8AA08AB09AC0AAD0BF0
:102D1000124E910230EB74F11205C3890CEAFEEBFE
:102D2000FF122EC412039690FAFA78081203C874A0
:102D30000C780812037DF50DF50EF50F7808790C67
:102D4000120214740C780812039690FB177808127C
:102D500003C8AA08AB09AC0AAD0B124DC87C10120F
:102D60002C8A0230F074F11205C374F612056CE976
:102D7000C39406505890F5DDE069700B90F5F3E0D0
:102D800064027003D38047851082851183AA82ABC9
:102D900083122CBCC082C08390FAE27808120441EE
:102DA000D083D08278081201DF602274051205B743
:102DB000E0601A1230F5750B00851082851183785A
:102DC0000C120441780C79081201F450B7C3740A4C
:102DD0000230ED74F81205C374F612056CEAFEEBCE
:102DE000FFEE7001EF605875080090F5DDE064FFBC
:102DF000601B90F5E4E06E7003A3E06F700F90F538
:102E0000F3E06402700790F5DDE0F980348510820C
:102E1000851183AA82AB83A908122CBC7405120504
:102E2000B7E0601274061205B7E06E7003A3E06F9E
:102E30007004A908800B0508E508C3940640CE7904
:102E4000FF740A1205827F01020623C082C08390AC
:102E5000FB16E0F98005740A120582D083D0822225
:102E6000C082C083E990FB16F080F074F11205C3B4
:102E7000890C122EC412039690FB1B78081203C80B
:102E8000780812070A122EC412039690FAFA7808EC
:102E90001203C8740C780812037DF50DF50EF50FBA
:102EA0007808790C120214740C780812039690FBBF
:102EB0001778081203C8AA08AB09AC0AAD0B124D6B
:102EC0000A0230EB1230F9750B0074017808227495
:102ED000F11205C374FF12056CE985108285118318
:102EE000F08A0C8B0D8C0E8D0F74161205B7E0FE58
:102EF000A3E0FF90FAE2780812044190F5DE78082A
:102F0000120463E490F5F3F090FB16E0FA8510826A
:102F1000851183E06A700674FF90FB16F0851082BD
:102F2000851183E0C394064003022FF7122EC412CA
:102F30000396780C79081201F45003022FF77418E5
:102F40001205B7E0600764216003022FF7741212C4
:102F500005B7122C1B8A088B09E065087004A3E0F2
:102F600065096003022FF774141205B7122C248A26
:102F7000088B09E065087004A3E065097079EEFA32
:102F8000EFFB122DD374FF69600312310890F5E452
:102F9000EEF0A3EFF074181205B7E090F5E6F0A399
:102FA000E4F074101205B7E090F5E2F0740190F5CA
:102FB000E3F090F5F3F074111205B7E090F5EEF040
:102FC00074121205B7E0F8A3E0F990F5EFE8F0A36A
:102FD000E9F074141205B7E0F8A3E0F990F5F1E810
:102FE000F0A3E9F07906122E6B851082851183E03B
:102FF00090F5DDF0D3800774FF90F5DDF0C3740128
:103000000230ED74F11205C374F912056C740112EB
:1030100005B7EAF0A3EBF0E9851082851183F0A2F1
:10302000F0920090F5F3E064016004C30230E7120F
:103030003100851082851183E0FC74031205B7EC22
:10304000F0A3E4F0A3F0A3F0F50AF50B74017808FF
:1030500012039674031205B7780C1204417583F5B8
:103060007582DE780C1203C8780C79081201F440DE
:10307000BA1230F57401780812039690FAFA7808BB
:103080001203C8740C780812037D90FB1F780C1291
:1030900004417808790C12021490F5DE78081203C6
:1030A000C890FAFE78081203C8AA08AB09AC0AADAA
:1030B0000B124DC874031205B7780812044190F53D
:1030C000DE78081203DB851082851183E0FC7D0029
:1030D00074011205B7E0FAA3E0122C8FA20050068B
:1030E000740290F5F3F0D374078002740412058221
:1030F0007F080206231230F922123100750A0022DD
:10310000122C128A088B092274F51205C3E9FE906D
:10311000FAE2780812044190F5DE7808120463E4BC
:1031200090F5F3F074FF6E70177E001231507ADE66
:103130007BF5EEF9122D160EEEC39406500F80EBC0
:10314000EEC3940650077ADE7BF5122D16022CB7DB
:10315000740F55C944A0F5C9740F55C94450F5C939
:103160002274F11205C390F5F3E0640260030232A9
:10317000B0122EC412039690FAFA78081203C8749B
:103180000C780812037D90F5DDE0F50C750D0075E7
:103190000E00750F007808790C120214740C780870
:1031A00012039690FAFE78081203C890F5F4780896
:1031B000120463122EC412039690FAFA78081203CE
:1031C000C8740C780812037D90FB1F780C12044120
:1031D0007808790C12021490FAFE78081203C8904D
:1031E000F5F8780812046390F5DDE0F9122E6B9083
:1031F000F5F87808120441AA08AB09AC0AAD0B1225
:103200004EE190F5EEE06402701F1232B390F5E6E5
:10321000E0F508A3E0F5097405780812054AAE0840
:10322000EE1E60601232B380F7123100750A977596
:103230000B2C780A12070E750A39750B2C780A12B6
:10324000070E750A00750B00740178081203967852
:103250000812070A90F5E2E0F990F5DE780812040A
:1032600041AA08AB09AC0AAD0B1218147408120578
:103270008290F5DE7808120441AA08AB09AC0AADC9
:103280000B12188F122C1290F5DEEAF0A3EBF0A3CC
:10329000E4F0A3F0124F317906122E6B7ADE7BF543
:1032A00090F5DDE0F9122D1674FFF0E490F5F3F0DF
:1032B0000230F090F5F1E0FCA3E0FD90F5EFE0FACC
:1032C000A3E0FB121C4822C082C08374F612056C76
:1032D000E9C394065022851082851183AA82AB83AC
:1032E000122CBC74081205B7E054E0F8A3E0F9E82A
:1032F0007001E96003D38001C3022E56C2AF75CBC3
:10330000F475CF3F75CE44D2BBD2AF22C0E0C0D05F
:10331000E8C0E0C008C009C00AC00BC082C08390EA
:10332000FAEE780812044190F5FC78081203DBD01D
:1033300083D082D00BD00AD009D008D0E0F8D0D00A
:10334000D0E03274F51205C390F5FC780812044100
:10335000AA08AB09AC0AAD0B7F04020623C3EA94AA
:1033600006EB9400401AEA24FBFAEB34FFFBEAF880
:10337000EBF974FF281A74FF39FBE87001E970EE6D
:103380002274F81205C3EAFEEBFF80077AE87B039C
:1033900012335DEEF8EFF974FF281E74FF39FFE871
:1033A0007001E970E77F0102062374F51205C390EE
:1033B000F600E06020123567C2AF90FB2778081254
:1033C0000441AA08AB09AC0AAD0B124EE11234FC61
:1033D000E490F600F07F04020623C082C08390F6DA
:1033E00001E0F8A3E0F988828983A3AA82AB8390E5
:1033F000F601EAF0A3EBF088828983E0F9D083D06C
:10340000822274F11205C3EAFEEBFF890890F603ED
:10341000780C120441AA0CAB0DAC0EAD0F124DC8C6
:10342000AC087D00EEFAEFFB124DF29200124E7DD9
:10343000750900750A00750B0090F60378081203F1
:10344000DBA2007F0802062374F41205C3EAFEEB38
:10345000FF890CE490F600F090FB2B12072190FB03
:10346000277808120441AA08AB09AC0AAD0B124D2B
:103470000A740412058290FB27780812044190F622
:1034800003E508F0A3E509F0A3E50AF0A3E50BF0D6
:103490007508DA750933780812070E750802750980
:1034A00034780812070E90FB2B120721A90C8E0806
:1034B0008F09AA08AB097C007D0012181474081249
:1034C00005827F0502062374F81205C390F601EA0F
:1034D000F0A3EBF0E9FA7B007C007D0012188FE985
:1034E0001207520001F634EB34EE34D38009740134
:1034F00090F600F080F5C37F0102062374F81205F0
:10350000C374FAC39491747F947FFD7491C39491B2
:10351000747F947FFB7407240074F63BFFC37469C7
:103520009470ED9400503E7A007B00802374912AC1
:10353000F582747F3BF583E493C0E0EA2407F582CB
:10354000EB34F6F583D0E0F0EA24010AEB3400FB1B
:10355000C3EA9469EB9D40D57582078F831205C13C
:103560007F0102062380FE12357575C908221235C7
:103570007575C90922740F55C944A0F5C9740F5552
:10358000C94450F5C92274FF12056CE5BE8510824E
:10359000851183F07A057B001233811279D5E0F929
:1035A0001279C8123567D2811232FC124B47127958
:1035B000FD121C72124C8BC2F0121137120A8C12BF
:1035C0001F21121F821227597901121DAA121E04EF
:1035D0007A107B0E121D7B12496074011205822243
:1035E0007F0102062374F51205C3E490F6F2F09011
:1035F000FAE2780812044190F6F37808120463E4C2
:1036000090F6F8F090F73DF090F73EF002386274D3
:10361000F71205C3123677F508E49400F5097444EF
:10362000C39508F8E49509F9C3E89420E9940040AB
:103630003AE0F87444C398F8E49400F9C3E894209D
:10364000E994005022780812070EEA24F9FCE434C9
:10365000F6FD7AF97BF612097A74021205821236A7
:1036600077F0E490F73DF079018002790080031251
:1036700005827F0202062390F73DE0FA90F73EE0D4
:10368000C39A22C082C08390F73DE0FC90F73EE0F1
:10369000C39C8A828B83F0600890F73D1236DE80EF
:1036A000047A007B00D083D0822274F71205C39085
:1036B000F73EE0F87444C398F508E49400F50978FF
:1036C0000812070E7C007D0090F73E1236DE12389D
:1036D0006B120582E024FBFAE434F6FB8094E024CC
:1036E000F9FAE434F6FB22C082C083EA6004E9D22E
:1036F000E7F990F73E123711E9F090F73EE004F059
:10370000EA600C123711EAF00A90F73EE02AF080E6
:1037100094E024F9F582E434F6F583227A00123637
:10372000E72274F51205C374E512056C75081B7564
:103730000900780812070E7C007D0074021205B79C
:103740001238671205827403851082F090F6B2E099
:10375000C0E074011205B7D0E0F090F6B3E0C0E02D
:1037600074021205B7D0E0F090F6B4E0C0E0740344
:103770001205B7D0E0F090F6B5E0C0E07404120591
:10378000B7D0E0F090F6B6E0C0E074051205B7D00F
:10379000E0F090F6B7E0C0E074061205B7D0E0F0B4
:1037A00090F6B8E0C0E074071205B7D0E0F090F6EC
:1037B000B9E0C0E074081205B7D0E0F090F6BAE0C6
:1037C000C0E074091205B7D0E0F090F6BB1246D302
:1037D000740A1205B71246CA90F6BDE0C0E0740C38
:1037E0001205B7D0E0F090F6BE1246D3740D120564
:1037F000B71246CA90F6C01246D3740F1205B7121C
:1038000046CA90F6C21246D374111205B71246CAC0
:1038100090F6C4E0C0E074131205B7D0E0F090F663
:10382000C5E0C0E074141205B7D0E0F090F6C67899
:103830000812044174151205B7780812046390F653
:10384000CA1246D374191205B71238A590F6CC12D5
:10385000481F740290F6B1F0791212371C741B12D3
:1038600005827F04020623AA82AB83120A1974021E
:1038700022C082C08374E512056C85108285118395
:10388000AA82AB831213A91246D0740F1205B71285
:1038900038A51238B8127298792212371C741B128C
:1038A00005820236A5E8F0A3E9F085108285118330
:1038B000AA82AB831213A12290F6B2E0FAA3E0FB36
:1038C0002274F71205C374E512056C75081B75099F
:1038D00000780812070E7C007D0074021205B712F2
:1038E0003867120582851082AA82AB831213A17AEF
:1038F000007B0012158F7900121622740290F6B127
:10390000F0791312371C741B02366F74F71205C35B
:1039100074F012056C12414E790185108285118375
:10392000AA82AB831264E774021205B7E08E828F1D
:1039300083F074041205B71239BCF074051205B790
:103940001239BCA3F074071205B71239C31246CA64
:1039500074091205B71239C3A3A31246CA7406121A
:1039600005B71239AEF0740C1205B71239AEA3F0D8
:10397000740B1205B71239D0F0740D1205B7123955
:10398000D0A3F0740E1205B7E0C0E0EE240B124194
:1039900041D0E0F0740F1205B7E0C0E0124149D009
:1039A000E0F07A0D791B1236E7741002366F123987
:1039B000B2221239BCA3A3A3A3A3A322E08E828FB9
:1039C00083A322E0F8A3E0F98E828F83A3A3A3222E
:1039D0001239B2A3A32274F11205C374F712056C55
:1039E00090F6F378081204417440C39508F508E492
:1039F0009509F509780812070E7C007D0090F6F312
:103A00007808120441E50824B2FAE50934F6FB12FD
:103A1000386B12058290F6B4E0F990F6F7E01207E1
:103A200088002701743B02923B03023B05A83A0B36
:103A3000A83B0C063C0ED13C0F6F3C10793C118327
:103A40003C12FB3C137B3D14813D16653E17BE3D89
:103A5000194E3C1A9A3E1B693F1C8F3C1D9C3C1E14
:103A6000C43C1F1C3F20543F21673B22753D23E788
:103A70003C24013D253B3D266F3F2C1C412D274119
:103A80002E05402F344032464034BF403510413778
:103A90005E40389A403C9A3A3441793C12371C7463
:103AA0000190F676F00241391241567C0090F6B54D
:103AB000E0640170027C04EA2404F50AEB3400F5AA
:103AC0000B780A12070E780812070E90F6B4E0FB86
:103AD00090F6B3E0FA90F6B2E0F9122A17740412E5
:103AE0000582850882850983A3A31244B290F6B0AB
:103AF000E060057901122B277A0579051236E70275
:103B0000413990F6C7E0FA6007A2E1400302413470
:103B100090F6CAE0F508780812071290F6C8120766
:103B20002590F6B512072590F6B3120725EAF50899
:103B3000780812071290F6C6E0F508780812071206
:103B400090F6B77808120441AA08AB09AC0AAD0B8D
:103B500090F6B2E0F9122ECF7409120582400302EA
:103B60004134790302413690F6B2E0F91231087916
:103B7000210241361236AA8A828B831233438A0885
:103B80008B098C0A8D0B78081204637A0479010280
:103B90003AFC1236AA8A828B83D2F0124F3A124430
:103BA000B27A027902023AFC1236AA90FAE2780C52
:103BB00012044190FAE278081204418A828B8378D9
:103BC00008120463801C850C82850D83780812041A
:103BD000508A828B8378081203DB90FB2F780C12BB
:103BE00003C87508FF75097F750A00750B0090FA08
:103BF000EE78081203C87808790C1201F440C77AED
:103C000004790B023AFC90F6B2E0C394025003022E
:103C100041341236AA74038A828B83F07407A3F0AE
:103C200074188A828B83A3A3F0E48A828B83A3A374
:103C3000A3F090FB3378081204418A828B83A3A3FC
:103C4000A3A378081204637A087960023AFC12414F
:103C50004E7A007B00120B6A1244AE121E27E492C9
:103C6000E08E828F83A3A3F07A037919023AFC795C
:103C700001121DAA790F0241367902121DAA79108C
:103C80000241367AB27BF612137179110241361273
:103C900036AA1213797A06791C023AFC90F6B2E041
:103CA000547FC394305008E0A2E740030480087AB0
:103CB000B27BF6120A70EAF97AB27BF612138C79AB
:103CC0001D0241361236AA1213947A14791E023A52
:103CD000FC1238B812130C90F6B4E0F91213371234
:103CE0000A8C790E0241361238B812128490F6B45A
:103CF0001238BB1212C07923024136123722024118
:103D0000397401851082851183F090F6B2E0C0E02D
:103D100074011205B7D0E012415E1205B7EAF074E3
:103D2000011205B7E0F9127349851082851183AA43
:103D300082AB831213B1792402413674018510825B
:103D4000851183F090F6B2E0C0E074011205B7D09F
:103D5000E012415E1205B7EAF074011205B7E0F90E
:103D6000127359851082851183AA82AB831213C105
:103D700079250241361238710241391238C10241A7
:103D80003990F6B6E06426600302413490F6B5E05F
:103D9000600302413490F6BBE0FA7583F67582B297
:103DA000E02AFAA3E03400FB12344890F6BBE0F9B5
:103DB00060077ABC7BF61234C7791402413612369A
:103DC000AA90F6B278081204418A828B83E508F043
:103DD000A3E509F074108A828B83A3A3F0EA24037D
:103DE000F508EB3400F50990F6B7E012075200032E
:103DF0003441FA3D3441243E4A3E750A10750B00A9
:103E0000780A12070E780812070E90F6B278081298
:103E10000441AA08AB09AC0AAD0B124E917404120E
:103E20000582803A750A10750B00780A12070E9009
:103E3000F6B2780C120441AC0CAD0D0A0A0AAB09BB
:103E4000120932740212058280147C100A0A0AAB2D
:103E50000990F6B27808120441A908120DDA7A1313
:103E60007917023AFCE9602590F6B2E0F508A3E084
:103E7000AA08FB7C007D00124DC890F6B4E0FC7DE2
:103E8000007AB57BF6124DF2124E7D8008124DADD0
:103E9000D2F0121137791602413612414E122C24FB
:103EA0001244AE122C1B8E828F83A3A31244B28EB7
:103EB000828F83A3A3A3A3A3A3A3A3A3A37405F0A7
:103EC000A3E4F074018E828F83A3A3A3A3F08E8258
:103ED0008F83A3A3A3A3A3F074068E828F83A3A3CF
:103EE000A3A3A3A3F074028E828F83A3A3A3A3A38F
:103EF000A3A3A3A3F01241497401F0EE240D1241D3
:103F0000417401F012413E7421F0122002EE240FA0
:103F1000124141E9F07A10791A023AFC124156A88E
:103F200008A909742688828983F0E4A3F0740188C3
:103F3000828983A3A3A3A3F0740388828983A3A3A4
:103F4000A3F0E488828983A3A3A3A3A3F07A0679CC
:103F50001F023AFC12414E90F6B2E0F9120B2F12FA
:103F600044AE7A027920023AFC12390B024139122E
:103F7000414E12155E1244AE1215768A088B09A8BE
:103F800008A9098E828F831241678E828F83124423
:103F9000A52404F508EF3400F509121646850882B9
:103FA0008509831244B21216771241741244A72471
:103FB00008F508EF3400F5091216C5850882850951
:103FC000831244B21216A5124174A3A31244A5246D
:103FD0000CF508EF3400F5091216EC850882850906
:103FE000831244B21217178A0A8B0BA80AA90B85F1
:103FF000088285098312416712413E1246CA7A102F
:104000007926023AFC90F6B2E0700512152E801F58
:10401000A2E0500312152EE0A2E25003121663E054
:10402000A2E15003121691E0A2E3500312170379A4
:104030002E02413690F6B2E0F91215E3E0F912745F
:10404000BE792F0241367AB27BF61227FF40030277
:1040500041347AB27BF61228A379320241361241FA
:104060004E12281F8A088B09A808A909E87001E9DF
:10407000600FE82402FCE93400FDEEFAEFFB120ABF
:1040800048EE24201241417403F0EE241F124141F6
:104090007403F07A217937023AFC12414E79041206
:1040A0001DAA90F6B0E06009121E04121D9FE9805F
:1040B0000274FF8E828F83F07A017938023AFC75A0
:1040C0000806750900780812070E7C007D0074054B
:1040D0001205B71238671205821246D07403120512
:1040E000B71246CA90F6B41246D374051205B71239
:1040F00046CA74031205B7AA82AB8312160290F661
:10410000B4E0FCA3E0FD1238B8122B9E793480266F
:1041100090F6B2E0F91274EA7935801A7AB27BF639
:10412000121731792C800F1236AA1217397A0479B6
:104130002D023AFC797F12371C74090246BBEE242B
:104140000EF582EF3400F58322EE240C80F3124149
:1041500056AE08AF09221236AA8A088B0922F090BF
:10416000F6B3E0FA74022212416B22E0C398F8A37E
:10417000E099F9228A0A8B0BA80AA90B8508828587
:10418000098312416B8E828F830239B574F8120550
:10419000C3E9FEECF9EDFFEE120788000304A84125
:1041A00015CF4133DB41E841EF6004D2F08002C219
:1041B000F0123003EF5012602F790412371C90F682
:1041C000B0E06024123161801F601D797F8016127B
:1041D00034C750F7EF60117915800A1229E750EBC8
:1041E000EF6005793312371C0235E074F11205C314
:1041F00074FC12056C8510828511831244B2E9FEAD
:1042000090F6F2E070030242CD24B2FAE434F6FBF9
:10421000750B0090F6F3780C12044190F6F2E0F57D
:1042200008750900750A00780C79081203EE8E08EB
:10423000780C79081201F4407390F6F378081204B0
:104240004190F6F2E0F8E508C398F508E509940016
:10425000F509780812070E74021205B71244B81255
:10426000058290F6F3780812044190F6F2E0F8E542
:1042700008C398F8E5099400F9851082851183E058
:1042800028F8A3E0391246C390F6F37808120441E7
:10429000EEC395087583F67582F2FAE02AFEE49083
:1042A000F6F8F01239D6E490F6F28020780812077A
:1042B0000E74021205B71244B812058290F6F2E0AD
:1042C0002EF07E0080077E00E490F6F8F012360FA4
:1042D000E970030243D7EE70030243D7851082854D
:1042E0001183E02401F8A3E03400F974021205B749
:1042F0001244A7F508750900750A00750B0090F6C1
:10430000F8E01207520004C64213434843FA4359E7
:1043100044C2421244F990F6F7F074021205B71243
:1043200044CE90F6F7E0A2E75007C2E7F0740180B0
:1043300098608F90FAE2780812044190F6F37808BA
:104340001204631239D680851244F9A2E7400302B1
:1043500043DEEEC39404407F124498A3A3A3E0F588
:1043600008124498A3A3E0F50C750D00750E0075B6
:104370000F007408780C1203967808790C12042E3A
:1043800074021205B71244FFF50C750D0074107815
:104390000C1203967808790C12042E1244F9F87462
:1043A0007F58F50C750E007418780C120396780877
:1043B000790C12042E90F6F3780812046374FC2E24
:1043C000FE851082851183E02404F8A3E0340012F6
:1043D00046C374030242C9EEF974040246BB124498
:1043E00098E090F6F3F0A3E4F0A3F0A3F0740212C7
:1043F00005B71244CE74020242C990F6F3780C124B
:104400000441780C79081201F4403790F6F37808EB
:10441000120441780812070E74021205B71244C341
:10442000120582E490F6F8F01239D690F6F3780887
:10443000120441124506120441E508CEC39EFE0255
:1044400042CD780812070E74021205B71244C31247
:104450000582EE90F6F20242C190F6F3780C120457
:1044600041780C79081201F440217D0190F6F3782F
:1044700008120441AC081244E0120441124506122D
:104480000441E508CEC39EFE0242C87D00EEFC1248
:1044900044E012041A0242C2851082851183A3E00F
:1044A000F583888222A3A3E8F0A3E9F0EE228E82AE
:1044B0008F83EAF0A3EBF022E0FCA3E0FD120932C7
:1044C000740222E0FCA3E0FD7AB27BF680EFE0F814
:1044D000A3E0F9851082851183E8F0A3E9F01E229C
:1044E000851082851183E0FAA3E0FB90F6F7E0F9EE
:1044F00012418C90F6F3780822851082851183E0B2
:10450000F812449EE022851082851183E02508F888
:10451000A3E03509F9851082851183E8F0A3E9F05D
:1045200080D174F11205C374C312056C742912058D
:10453000B7AA82AB8312137974031205B7AA82ABB0
:10454000831213A9E0640360030246447404120555
:10455000B7E0C0E0741E1205B7D0E0F07405120594
:10456000B7E0C0E0741F1205B7D0E0F07406120582
:10457000B7E0C0E074201205B7D0E0F0740C12056B
:10458000B7E0C0E074211205B7D0E0F0740D120559
:10459000B71246D374221205B71246CA740F120519
:1045A000B7E0C0E074241205B7D0E0F07410120533
:1045B000B71246D374251205B71246CA74121205F3
:1045C000B71246D374271205B71246CA74141205DF
:1045D000B71246D3742F1205B71246CA74161205C5
:1045E000B7E0C0E074311205B7D0E0F074171205DF
:1045F000B7E0C0E074321205B7D0E0F074181205CD
:10460000B7780812044190FB37780C1204417808FF
:10461000790C12029474331205B77808120463748B
:104620001C1205B71246D374371205B71246CA12C8
:1046300015A074391205B71244B2121631743B1228
:1046400005B7E9F0851082851183AA82AB83121326
:10465000B9E06401701174021205B7E0FA74011236
:1046600005B7E0F9127349851082851183AA82ABE0
:10467000831213C9E06401701174021205B7E0FAE5
:1046800074011205B7E0F91273591215C81274BEFD
:1046900074031205B7E064036004790180027900B5
:1046A000741E1205B7AA82AB831266BDE9FA7415AF
:1046B0006A7004790080027901743D1205827F08D6
:1046C000020623F9851082851183E8F0A3E9F02220
:1046D00090F6B2E0F8A3E0F92274F51205C374C5B0
:1046E00012056C851082851183AC82AD83741C1217
:1046F00005B7AA82AB831265B0E9600302481A8548
:104700001082851183E0700302481A75081B750931
:1047100000780812070E7C007D0074031205B712A2
:1047200038671205827403F0741C1205B7E0C0E00C
:1047300074021205B7D0E0F0741D1205B7E0C0E0B6
:1047400074031205B7D0E0F0741E1205B7E0C0E0A4
:1047500074041205B7D0E0F0741F1205B7E0C0E092
:10476000740A1205B7D0E0F074201205B71246D3D0
:10477000740B1205B71246CA74221205B7E0C0E0E6
:10478000740D1205B7D0E0F074231205B71246D3AA
:10479000740E1205B71246CA74251205B71246D315
:1047A00074101205B71246CA742D1205B71246D3FB
:1047B00074121205B71246CA742F1205B7E0C0E092
:1047C00074141205B7D0E0F074301205B7E0C0E001
:1047D00074151205B7D0E0F074311205B7780812DD
:1047E000044174161205B778081204637435120573
:1047F000B71246D3741A1205B71246CA74011205CD
:10480000B7AA82AB831213A174371205B712481FDF
:1048100074391205B7E0F9121622743B02385FE0D2
:10482000FAA3E0FB12158F2274F81205C374FF126D
:10483000056CEAFEEBFFE4851082851183F090F6AB
:10484000B0E0851082851183AC82AD837A777BF6E8
:10485000600612517CE9800B12646DE970047439B2
:104860008001E48E828F83F0851082851183E0F9C8
:1048700074011205820235E074F51205C374FF124B
:10488000056C8908890912494A800612494A850837
:1048900009E0C394055007E5097003024939EE7039
:1048A00001EF602BE0C394055025E0FA7405C39A2C
:1048B000F50AE49400F50B780A12070E7C007D00DF
:1048C000EE2AFAEF3400FB12386B1205828009E001
:1048D000C39406400375090090F6B0E0A909600B87
:1048E000EEFAEFFB1251C9400C8043EEFAEFFB12D7
:1048F0006414E9703990F73DE0F8740528F8E43461
:1049000000F990F73EE0FAE89AE99400C365D033E5
:10491000500690F73DE88008E490F73DF090F73EB0
:10492000F0E509701090F6B0E0700302488B790052
:10493000740102385F790180F790F6B0E060EF799A
:10494000007A007B001251C980E4851082851183B2
:10495000AA82AB831236838A0A8B0BAE0AAF0B2274
:1049600074F51205C374FF12056C750902E4851015
:1049700082851183F01266AF1235E58009740265F5
:10498000097003024AF1124BA0758900438C087923
:10499000001264BF90F6B1E07005124522E9F012F2
:1049A00046D9E06008126882E9F508800375080AB4
:1049B000538CF7124B90123567E5081207520A0222
:1049C000FD49DB49FD49C849E4851082851183F022
:1049D000F50990F6B0F01235E5803979011264BF1F
:1049E000E4851082851183F0F509740190F6B0F02A
:1049F0001235E5124FDDE490F6B1F08006740265E1
:104A000009600890F6B0E07026800990F6B0E0608A
:104A100003024AF112669DE9601512360FE9700330
:104A200002497D851082851183E0700302497D75FE
:104A30000801124B3690F6B0E07005801D124B361F
:104A4000A281400512526650F4A2815005750902F8
:104A50008008125045E492E0F508851082851183A4
:104A6000E07015AA82AB83124828E96007E5097057
:104A7000037509017E777FF612360FE9601FE0604B
:104A80001CF9EEFAEFFB1241EBE9FAE0C39AFAE007
:104A9000C39AF08A0AEE250AFEEF3400FFE50860AB
:104AA00026E0701E7401650970187901124878E9D2
:104AB000601590F6B0E06005750900800A7509027E
:104AC00080057900124878851082851183E06003A3
:104AD0000249FDE50960030249FDAA82AB83124841
:104AE00028E960037509017E777FF6024A03124BBD
:104AF0003679011264BFE970F5126C66E960030251
:104B0000498690F676E0600512356E80FE1274D309
:104B1000123161121E041233AA7900122B27790078
:104B20001264BF121F8A90F6B1E06402600302496A
:104B300086E4F0024986740F55C944A0F5C9740F84
:104B400055C94450F5C922C082C083438C01D2BDEF
:104B5000805CC2AF43F10275FA8375FC0A43F480AE
:104B600043F44075F8C0D2ABD2AF22C082C083C23A
:104B7000AB90F73FE06006A2F950FCE4F075F880D6
:104B800053F47F53F4BF43FE40D29653FE7F8021FF
:104B9000C082C0838018124B52740190F740F022FB
:104BA000C082C083124B6BE490F740F08003124B3D
:104BB00096D083D08222C082C08390F740E0600309
:104BC000124B6B80ECC082C08390F740E060031210
:104BD0004B5280DDC082C08390F73FE06006A2EABE
:104BE00050FCC2EA7401F089F980C6C0E074F21288
:104BF000065BE5F8FAA2E2500BE5F9F9EAA2E44017
:104C0000031250F37F010206BAC0E0C0D0E589A2CA
:104C1000E1500853BEFCE5BE538CF7758900C2C550
:104C2000D0D0D0E032124BB653F1FD75FA0075FCCE
:104C30003175F84043F32043F31043F3082275F82D
:104C40000053F3DF53F3EF53F3F7124BC522A2F9EE
:104C500050FCC2F92289F92289F9124C4E2243F103
:104C60000175C20075C53175864043F42043F408D0
:104C70002275860053F4DF53F4F722E586A2E15053
:104C8000FA5386FD2289C1124C7B22D2A043FF0138
:104C90007A147B0012338122C2A079AB124CA82275
:104CA000C2A079B9124CA822124CBB7A037B001225
:104CB000335D22C2A07906124CBB22124C58D2A0FE
:104CC0002274F11205C38A0C8B0D8C0E8D0F124CC1
:104CD000B3C2A07902124F0712037D124F1B7F0847
:104CE0000206238010740F55C944A0F5C9740F55EE
:104CF000C94450F5C9C2A07905124C587900124C2C
:104D000058E5F9D2A0A2E040DC2274F11205C37488
:104D1000FC12056C851082851183EAF0A3EBF0A3E9
:104D2000ECF0A3EDF074131205B7780812044112E9
:104D30004DEB801B90FB3B78081203C890FADE789D
:104D40000C120441851082851183780C1203DB90CC
:104D5000FAE278081201DF603D124CB3C2A079205C
:104D6000124DA11204417410780C12037DA90C128B
:104D70004DA1120441A90D124DA1120441A90C121A
:104D80004CBB124CE390FB3F780C120441780C7939
:104D9000081201F4509E124DC17404120582024C97
:104DA000DE124C58851082851183780C22124DEB4F
:104DB000124CB3C2A07960124CBB124DBE22124CF1
:104DC000E3124CA0124C3E2274F51205C38A088BE4
:104DD000098C0A8D0B90F7417808120463740190D6
:104DE000F745F0124DEB7F04020623124C25124CBE
:104DF000982274F31205C38A0C8B0DECFEEDFFEEC6
:104E00007001EF606D90F7417808120441AA08AB79
:104E100009AC0AAD0B124CC1850C82850D83E0F9FB
:104E2000124C58A385820C85830DEE24FF1EEF34AF
:104E3000FFFF90FAEE780812044190F741780812CB
:104E400003DB90F7417808120441E5087016D2A000
:104E5000124CE3EE7001EF600BAA08AB09AC0AAD8F
:104E60000B124CC190F7417808120463EE7001EF09
:104E700070A6D2A0124CE3D37F06020623C082C0E4
:104E800083124DEB124DBEE490F745F0D083D082F3
:104E90002274F31205C3740D1205B7E0F50CA3E0FC
:104EA000F50D740F1205B7E0FEA3E0FF124EE1808E
:104EB00018A2F950FCC2F9E5F9850C82850D83F042
:104EC000F5F9A385820C85830DEEF8EFF974FF28C0
:104ED0001E74FF39FFE87001E970D6124F31024E9F
:104EE0007774F11205C38A0C8B0D8C0E8D0F124D49
:104EF000EBC2A07903124F0712037D124F1B7900FA
:104F0000124C55D3024CDE124C58850C08850D0905
:104F1000850E0A850F0B7410780822A908124C58C8
:104F2000850D09A909124C58850C08A908124C587E
:104F300022124C4ED2A0124DC12274F11205C37937
:104F40000E120B2F8A088B09121295E5093395E092
:104F5000F50AF50B90FAD6780C1204417808790C12
:104F6000120214C008C009C00AC00B8A0C8B0D7550
:104F70000E00750F0090FADA7808120441780C7967
:104F800008120214D00BD00AD009D0087808790C86
:104F90001203EE90FB37780C1204417808790C125A
:104FA00002141212D18A0C8B0D750E00750F007849
:104FB00008790C12032E90FB43780C1204417808F8
:104FC000790C12021490FADA780C120441780879FC
:104FD0000C12032EAA08AB097F08020623C082C068
:104FE00083E490F752F090F751F0025276C082C0FD
:104FF00083E9FC7900800C8A828B83E029F9A3AADB
:1050000082AB83EC1C70F002527674F81205C379FF
:10501000C0124BD47582487583F77E08801DE0F579
:1050200008A374C0650860067480650870087980FC
:10503000124BD4630880A908124BD4EE1E70DFD344
:105040007F0102062374F71205C3C20090F746E001
:1050500004FE793C7A567BF7124FEDE9600B125053
:105060000AE490F751F00250EC90F752E0FA600534
:1050700074036A700A90F756E0A2E1401180DF9055
:10508000F756E0A2E140D790F757E06E70D0740178
:1050900090F750F090F757E090F746F0E490F7471C
:1050A000F090F756E0A2E15006740190F752F090AC
:1050B000F756E0A2E0501B740190F7CB1251BF12DB
:1050C000070E7C597DF77A927BF71209327402122F
:1050D0000582E490F751F090F756E0A2E2500B9071
:1050E000F752E0640360037402F0D200A2007F0272
:1050F000020623C082C08390F751E0FA12075200E3
:1051000002235109512751275174C0697015740247
:1051100090F751F0E490F753F090F7547456F0A3E1
:1051200074F7F0C302527674C06960E274806970EB
:1051300007740190F75180EA74016A700AE964808B
:10514000F9740290F751F090F754E0F8A3E0F5837A
:105150008882E9F090F754E02401F8A3E03400F9E4
:1051600090F754E8F0A3E9F090F753E004F0C3940B
:105170003C40B0740390F751F0D380A874F7120547
:10518000C390F7CBE0603390F752E0FE74026E609C
:105190000574036E700474018001E48C828D8312A7
:1051A00051BF12070E7C597DF712093274021205A5
:1051B00082E490F7CBF07939800279000250EEF06A
:1051C00075083975090078082274F71205C390F73D
:1051D00050E07004C302526390F747E054F2F0EAE3
:1051E0007001EB6004E0D2E0F0E9601C90F752E05F
:1051F000FC74026C600574036C700D90F747E0D28C
:10520000E2F0740390F752F090F7CBE0600790F76C
:1052100047E0D2E3F0EA7001EB601B750805750901
:1052200000780812070EEAFCEBFD7A4B7BF71209B7
:10523000327402120582E490F74AF090F746E0904B
:10524000F749F090F747E090F748F079087A487B03
:10525000F7124FEDE9F40490F74AF0E490F750F0BC
:1052600012500A0250EEC082C08390F751E06403EE
:105270007003D38001C3D083D08222E9C39480E934
:10528000400DF879FF7A027B001204D9E88002C34E
:105290001324B6F922C082C083740690DF0712532C
:1052A000D4745690DF1A1253C674E990DF1CF08054
:1052B0000AE090DF2EF07402120582D083D08222A1
:1052C000C082C083E96006126D05E960051252953F
:1052D00080551274C9E91207520101CD52E152F70B
:1052E00052740B90DF07F0744290DF11F0747B90E2
:1052F000DF0CF074838014740C90DF07F074479017
:10530000DF11F0745B90DF0CF074F890DF0DF07437
:10531000B690DF1AF0741D90DF15F0741C90DF1644
:10532000F074EA90DF1CF08092C082C08374129007
:10533000DF07F0E490DF081253D4741390DF0EF00F
:10534000742290DF0FF074F890DF10F0E490DF0625
:10535000F0745690DF1AF0741090DF1BF0E490DFC9
:105360002EF0743090DF13F0741890DF141253C6CF
:10537000744390DF17F0744990DF18F0749190DF58
:1053800019F074E990DF1CF0742A90DF1DF0E490AE
:10539000DF1EF0741F90DF1FF0745990DF20F0744F
:1053A0008190DF23F0743590DF24F0740990DF25BD
:1053B000F0740E90DF03F0740590DF04F074FF903A
:1053C000DF02F00252BBF0741690DF15F0746C909F
:1053D000DF16F022F0743490DF11F074CA90DF0C05
:1053E000F0748390DF0DF022C082C08374FE12053A
:1053F0006C851082851183AC82AD8374011205B770
:10540000AA82AB83127463741090DF1BF0127414C1
:10541000E9643F700885108285118380057401124C
:1054200005B70252B1C082C08374FE12056C8510AC
:1054300082851183AC82AD8374011205B7AA82AB59
:105440008312747E741090DF1BF0127414E9643FB1
:105450007008851082851183800574011205B702DA
:1054600052B174F11205C374FF12056CE985108204
:10547000851183F0EAFEAA82AB831274A1E0C39483
:105480004A5014E075F003A424FBF582E5F03407DC
:10549000F583E493FA70047900806F75E10490DF7E
:1054A0003BE0541F640170F6EA90DF091255202496
:1054B000FCF582E5F03407F583E49390DF0A12559A
:1054C0002024FDF582E5F03407F583E49390DF0BAB
:1054D000F01255148A088B098C0A8D0B90FAF67815
:1054E000081203C8800612551412532990DF1EE0DB
:1054F000643F70097808790C1201F440E9EE7005F8
:1055000012542580031253E8790174011205827F39
:1055100008020623127A2C8A0C8B0D8C0E8D0F221A
:10552000F0851082851183E075F003A422C082C04B
:105530008312738FE990DF05F0125425743090DFE9
:1055400013F043EB08D083D0822274F11205C3EA32
:10555000FEEBFF90DF3BE0541F640D701D125827D7
:1055600090FB4C78081203C880081258401201F4CE
:10557000501590DF3CE0541060F0743190DF24F05F
:10558000EEFAEFFB1278977F0802062374F11205FA
:10559000C374F212056C851082851183EAF0A3EBC7
:1055A000F074081205B7ECF0A3EDF012582790FB49
:1055B0005078081203C87E001258401201F45007B8
:1055C000E5E9A2E050F20E74FF90DF02F0EE700504
:1055D000790002581290FB4BE07006E5E9A2E45016
:1055E000F4125DCF740A1205B778081204631279B9
:1055F00007E9FA60030A0A0AE5E9EA60D3127907C3
:10560000E9640770CB740A1205B778081204419058
:10561000FB43780C1204417808790C12029485102F
:105620008285118312581A780812046375E104E424
:1056300090FB4BF053E9EF74041205B7AC82AD83D5
:1056400074061205B7AA82AB83127940740412055E
:10565000B7E0F91270E474051205B7E0547FF9124F
:10566000710674061205B7E0F8A3E0F9851082858B
:105670001183E8F0A3E91258552402F8A3E034009E
:10568000F974021205B7E8F0A3E9F074021205B745
:10569000125850C0E074081205B712581AD0E01220
:1056A0005855F8A3E0F5838882A3E0F5083395E028
:1056B000F509F50AF50B90FB54780C1204417808B3
:1056C000790C12021490FB58780C12044178087976
:1056D0000C12032E780812036C90FB477808120412
:1056E00002740A1205B778081203C890FB5C7808A8
:1056F0001203C890FB43780C1204417808790C120D
:10570000032EAA08AB09126C7C127167E9600302D0
:105710005794750A001273998A088B09125833A39B
:10572000A3E0F8A3E0FAE8F9EAFEE9FF1273A6E9BC
:10573000F50C74021205B7125850F8743F58F874FB
:10574000FF250CFA74FF3400FBEA5508FAEB550903
:10575000FBEA687001EB60057904025812125833B5
:10576000E0F8A3E0F974FF68700374FF697029EE34
:105770007001EF600A1273DAE96E7001EF702C7439
:10578000021205B7125850A2E750097901126CFABB
:105790007903807E7901807AE9FAE8F9EAF8E50888
:1057A000687003E509697034750A8074021205B7E0
:1057B000125850550A6053126CF0E9703412751C7F
:1057C000127512E9C394024032127508E9602C1276
:1057D00074C9E9603179001274F5802AE5086E70A9
:1057E00003E5096F7005750A4080C0126CF0E9602E
:1057F000A3126CDD126CAA790580177480650A709B
:1058000005790112750079008083126CF0E96084DB
:105810007902740E12058202558712581E22E0F892
:10582000A3E0F583888222127A2C8A088B098C0ADD
:105830008D0B2285108285118312581EA3A3A322EB
:10584000127A2C8A0C8B0D8C0E8D0F7808790C2215
:1058500012581EE022F0851082851183E02274F335
:105860001205C374FF12056CEAFEEBFF8C0C8D0D64
:1058700090FAE278081204418E828F83E508F0A343
:10588000E509F0A3E50AF0A3E50BF0125D7EE970EF
:1058900003025921851082851183AC82AD83EEFA13
:1058A000EFFB12558CE9F50860731273A6E9FE123E
:1058B00073998A0AA80AE0FA74FF2E582EC39AF840
:1058C0003395E0F9EEFA7B001204D9EAF509C394A6
:1058D00003A2D265D0334008EEC509C39509F50986
:1058E0001273B08A0A8B0BAE0AAF0BE509F50A33C7
:1058F00095E0F50BEE850AF0A4CEAAF0850BF0A496
:105900002AFA850AF0EFA42AFF126C72EA2EF8EB4D
:105910003FF9850C82850D83E8F0A3E9F0A90880A2
:1059200002790074011205827F06020623EAC399F8
:105930004005EAC39B4014EBC3995005EAC3995054
:105940000AEAC39B5008EBC39950037901227900FE
:105950002274F81205C31270BBE9FE12707CE97064
:105960003F7901126CC8E490F7D1F0EEF91270960D
:10597000E96401701090F7CCE06401700D90F7D1EC
:10598000E0D2E48004E490F7CCF0126DD9E9FA900B
:10599000F7D1E04AF0EEF97AD67BF712705C8040DE
:1059A000748090F7D1F0126DD9E9FAE04AF01270E4
:1059B000A0E96401701090F7CCE06401700D90F7DD
:1059C000D1E0D2E48004E490F7CCF0E490F7D6F094
:1059D00090F7D7F090F7D8F090F7D9F090F7DAF089
:1059E000740D90F7CDF012738FE990F7CEF012732B
:1059F00099EB90F7CFF0127399EA90F7D0F0742BEF
:105A000090F7D2F07900126FB4E990F7D3F07901F2
:105A1000126FB4E990F7D4F0E490F7D5F07ACD7B2B
:105A2000F712554A90F7CCE064017020126CBEE981
:105A300064017010E490FB4B125D447A147B0012F9
:105A40007D83800F126CAA126CDD8007E490FB4B03
:105A5000125D447F0102062374F11205C3EAFEEBD6
:105A6000FF750E008E828F83A3A3A3E0540FF50B66
:105A70008E828F83A3A3A3E05410F50960067401FE
:105A800090F7CCF07407550BF50A8E828F83A3A88C
:105A900082A983A3E0FA88828983E0FB74FF6A709D
:105AA0000374FF6B6003025B878E828F83A3A3A3C3
:105AB000E0A2E74003025B6A1273998A0E8B0F8E95
:105AC000828F83A3A3A3A3A3E0F50C8E828F83A36D
:105AD000A3A3A3A3A3E0F50D750802805AEE2AF84C
