:03000000020006F5
:03005F0002000399
:03000300020354A1
:1000620053BEFBE5BE30E6FB53C6B8E5C620E6FB51
:1000720043BE0422AF83E58290F000F0EFA3F0903C
:10008200F000E0FEA3E0FF1EBEFF011F90F000EEB5
:10009200F0EFA3F0C3E49E74808FF063F08095F0DC
:1000A200500F7C727D061CBCFF011DEC4D70F78069
:1000B200D690F000EEF0EFA3F0229000021200764C
:1000C2003090FD2243F10175864075C20075C5313D
:1000D20022E58290F002F0C29190F002E0F5C1E5D3
:1000E2008630E1FB5386FDD29122E58290F003F047
:1000F200C28790F003E0F5820200D3E58290F0041B
:10010200F0D28790F004E0F5820200D3AFF0AE8324
:10011200E58290F005F0EEA3F0EFA3F090F005E099
:10012200FDA3E0FEA3E0FF8D828E838FF0120373A6
:10013200F582C007C006C0051200ECD005D006D07B
:10014200077B017C00C374DD9B74808CF063F080BC
:1001520095F04031EB2DF8EC3EF98F0288828983CD
:100162008AF0120373F582C007C006C005C004C03E
:10017200031200FDD003D004D005D006D0070BBB7C
:1001820000C30C80C022E58290F008F0E0F58212F4
:1001920000EC7E007F00C374049E74818FF063F0D4
:1001A2008095F04015758200C007C0061200FDD090
:1001B20006D0070EBE00DF0F80DC22D286D280D2AC
:1001C20087D291D292900064120076C286C280D207
:1001D20091C292900064120076D292900064120052
:1001E200767582611200EC7582021200FD758280C2
:1001F2001200FD7582011200FD7582801200FD75EC
:1002020082061200EC75820E1200FD7582CD12007C
:10021200FD7582261200FD7582001200EC7582EFD8
:100222001200FD7582801200FD7582031200EC75CA
:1002320082001200FD7582821200EC758222120089
:10024200FD7582601200EC7582221200FD758241FA
:100252001200EC7582801200FD7582501200EC755E
:1002620082771200FD7582651200EC758200120021
:10027200FD7582101200EC7C017D007E007F00C3C0
:10028200E49C74E09D74019E74808FF063F080950D
:10029200F040268C038B82C007C006C005C0041242
:1002A20000FDD004D005D006D0070CBC00090DBD5E
:1002B20000050EBE00C90F80C67582011200EC75E2
:1002C20082071200FD7582011200FD758201120083
:1002D200FD75823C1200FD7582301200EC75823A87
:1002E2001200FD758223120188758224120188751D
:1002F20082261201887582271201887582281201CE
:100302008890F00975F00012010E90F0E675F00089
:1003120012010E90F1EB75F00012010E90F2F075E1
:10032200F00012010E90F3F575F00012010E7582C5
:10033200041200EC1200BC7582121200EC1200BC16
:100342007582021200EC7582071200EC7582A5021A
:1003520000FD12006243F42843FE1643FDC153FE22
:10036200FE1200C61201BDB29490006412007680A3
:01037200F694
:10039300200100006464000000000000010000016F
:1003A300010700000000001400000301030507001B
:1003B30000000A00003C3C000000000000050000B3
:1003C3000A0A0000000000001600000202040000F8
:1003D30000000006000050010700000000000400B8
:1003E3000050280500000000000200005028020011
:1003F30000000000040000010500000000000000F0
:1004030000000000000000000000000000000000E9
:1004130000000000000000000000000000000000D9
:1004230000000000000000000000000000000000C9
:1004330000000000000000000000000000000000B9
:1004430000000000000000000000000000000000A9
:100453000000000000000000000000000000000099
:100463000000000000000000000000000022010066
:10047300000000646400000000000001011000009F
:100483000101070000000000141112000003010322
:1004930005070000000A120000003C3C00000000B9
:1004A300000005120000000A0A0000000000001608
:1004B300200000000202040000000000060000000B
:1004C3000050010700000000000400000000502855
:1004D3000500000000000200000000502802000098
:1004E30000000004200000000105000000000000DF
:1004F30000000000000000000000000000000000F9
:1005030000000000000000000000000000000000E8
:1005130000000000000000000000000000000000D8
:1005230000000000000000000000000000000000C8
:1005330000000000000000000000000000000000B8
:1005430000000000000000000000000000000000A8
:100553000000000000000000000000000000000098
:100563000000000000000000000000000000000088
:10057300000021010000000064640000000000008E
:100583000101100000010107000000000014110226
:10059300200003010305070000000A120000003CCD
:1005A3003C00000000000005120000000A0A0000E1
:1005B3000000000016011000000202040000000009
:1005C30000060000000050010700000000000400C6
:1005D3000000005028050000000000020000000099
:1005E3005028020000000000040100000001050083
:1005F30000000000000000000000000000000000F8
:1006030000000000000000000000000000000000E7
:1006130000000000000000000000000000000000D7
:1006230000000000000000000000000000000000C7
:1006330000000000000000000000000000000000B7
:1006430000000000000000000000000000000000A7
:100653000000000000000000000000000000000097
:100663000000000000000000000000000000000087
:100673000000000000000025010000000064640089
:10068300000000000001002000000101070000003D
:100693000000141102200003010305070000000AF3
:1006A300120000003C3C00000000000005120000A6
:1006B300000A0A00000000000016033000000202D6
:1006C3000400000000000630200000500107000075
:1006D3000000000430200000502805000000000046
:1006E3000230200000502802000000000004000037
:1006F30000000105000000000000000000000000F1
:1007030000000000000000000000000000000000E6
:1007130000000000000000000000000000000000D6
:1007230000000000000000000000000000000000C6
:1007330000000000000000000000000000000000B6
:1007430000000000000000000000000000000000A6
:100753000000000000000000000000000000000096
:100763000000000000000000000000000000000086
:1007730000000000000000000000000029013F64A9
:100783006400000000000001FF01010700000000F9
:100793000014FF03010305070000000AFF3C3C00AF
:1007A300000000000005FF0A0A0000000000001618
:1007B300FF020204000000000006FF5001070000D2
:1007C30000000004FF502805000000000002FF5055
:1007D3002802000000000004FF01050000000000E3
:1007E3000000FF000000000000000000FF00000008
:1007F300000000000000FF000000000000000000F7
:10080300FF000000000000000000FF0000000000E7
:1008130000000000FF000000000000000000FF00D7
:100823000000000000000000FF00000000000000C6
:100833000000FF000000000000000000FF000000B7
:050843000000000000B0
:06003500E478FFF6D8FD9F
:1000130079B5E94404601B7A0590039378097593D5
:10002300F0E493F2A308B800020593D9F4DAF27569
:0200330093FF39
:10003B007800E84400600A79007593F0E4F309D87E
:10004B00FC7809E84400600C790190F000E4F0A31F
:04005B00D8FCD9FAFA
:0D00060075810712038FE58260030200037D
:1003730020F71430F6148883A88220F507E6A883B3
:1003830075830022E280F7E49322E0227582002243
:00000001FF
